{
  "_format": "hh-sol-artifact-1",
  "contractName": "Vault",
  "sourceName": "contracts/Vault.sol",
  "abi": [
    {
      "inputs": [
        {
          "internalType": "address",
          "name": "addrToken",
          "type": "address"
        }
      ],
      "stateMutability": "nonpayable",
      "type": "constructor"
    },
    {
      "anonymous": false,
      "inputs": [
        {
          "indexed": true,
          "internalType": "address",
          "name": "_from",
          "type": "address"
        },
        {
          "indexed": false,
          "internalType": "uint256",
          "name": "_value",
          "type": "uint256"
        }
      ],
      "name": "Deposit",
      "type": "event"
    },
    {
      "anonymous": false,
      "inputs": [
        {
          "indexed": true,
          "internalType": "address",
          "name": "previousOwner",
          "type": "address"
        },
        {
          "indexed": true,
          "internalType": "address",
          "name": "newOwner",
          "type": "address"
        }
      ],
      "name": "OwnershipTransferred",
      "type": "event"
    },
    {
      "anonymous": false,
      "inputs": [
        {
          "indexed": true,
          "internalType": "address",
          "name": "_from",
          "type": "address"
        },
        {
          "indexed": false,
          "internalType": "uint256",
          "name": "_value",
          "type": "uint256"
        }
      ],
      "name": "Redeem",
      "type": "event"
    },
    {
      "inputs": [
        {
          "internalType": "uint256",
          "name": "intAmt",
          "type": "uint256"
        }
      ],
      "name": "approve",
      "outputs": [],
      "stateMutability": "nonpayable",
      "type": "function"
    },
    {
      "inputs": [],
      "name": "blockTimestamp",
      "outputs": [
        {
          "internalType": "string",
          "name": "",
          "type": "string"
        }
      ],
      "stateMutability": "view",
      "type": "function"
    },
    {
      "inputs": [
        {
          "internalType": "uint256",
          "name": "intAmt",
          "type": "uint256"
        }
      ],
      "name": "deposit",
      "outputs": [],
      "stateMutability": "nonpayable",
      "type": "function"
    },
    {
      "inputs": [],
      "name": "getAllowance",
      "outputs": [
        {
          "internalType": "uint256",
          "name": "",
          "type": "uint256"
        }
      ],
      "stateMutability": "view",
      "type": "function"
    },
    {
      "inputs": [
        {
          "internalType": "string",
          "name": "strKey",
          "type": "string"
        }
      ],
      "name": "getRedPacket",
      "outputs": [],
      "stateMutability": "nonpayable",
      "type": "function"
    },
    {
      "inputs": [],
      "name": "getSupportedToken",
      "outputs": [
        {
          "internalType": "address",
          "name": "",
          "type": "address"
        }
      ],
      "stateMutability": "view",
      "type": "function"
    },
    {
      "inputs": [],
      "name": "getTxnFeeSmall",
      "outputs": [
        {
          "internalType": "uint256",
          "name": "",
          "type": "uint256"
        }
      ],
      "stateMutability": "view",
      "type": "function"
    },
    {
      "inputs": [],
      "name": "getVaultKey",
      "outputs": [
        {
          "internalType": "string",
          "name": "",
          "type": "string"
        }
      ],
      "stateMutability": "view",
      "type": "function"
    },
    {
      "inputs": [],
      "name": "owner",
      "outputs": [
        {
          "internalType": "address",
          "name": "",
          "type": "address"
        }
      ],
      "stateMutability": "view",
      "type": "function"
    },
    {
      "inputs": [],
      "name": "renounceOwnership",
      "outputs": [],
      "stateMutability": "nonpayable",
      "type": "function"
    },
    {
      "inputs": [],
      "name": "rugPull",
      "outputs": [],
      "stateMutability": "nonpayable",
      "type": "function"
    },
    {
      "inputs": [
        {
          "internalType": "uint256",
          "name": "intTxnFeePct",
          "type": "uint256"
        }
      ],
      "name": "setTxnFeePct",
      "outputs": [],
      "stateMutability": "nonpayable",
      "type": "function"
    },
    {
      "inputs": [
        {
          "internalType": "uint256",
          "name": "intTxnFee",
          "type": "uint256"
        }
      ],
      "name": "setTxnFeeSmall",
      "outputs": [],
      "stateMutability": "nonpayable",
      "type": "function"
    },
    {
      "inputs": [
        {
          "internalType": "address",
          "name": "newOwner",
          "type": "address"
        }
      ],
      "name": "transferOwnership",
      "outputs": [],
      "stateMutability": "nonpayable",
      "type": "function"
    },
    {
      "inputs": [],
      "name": "vaultBalanceERC20",
      "outputs": [
        {
          "internalType": "uint256",
          "name": "",
          "type": "uint256"
        }
      ],
      "stateMutability": "view",
      "type": "function"
    }
  ],
  "bytecode": "0x608060405262030d4060035560326004556305f5e10060055534801561002457600080fd5b5060405161159f38038061159f833981016040819052610043916100c8565b600160005561005133610076565b600280546001600160a01b0319166001600160a01b03929092169190911790556100f6565b600180546001600160a01b038381166001600160a01b0319831681179093556040519116919082907f8be0079c531659141344cd1fd0a4f28419497f9722a3daafe3b4186f6b6457e090600090a35050565b6000602082840312156100d9578081fd5b81516001600160a01b03811681146100ef578182fd5b9392505050565b61149a806101056000396000f3fe608060405234801561001057600080fd5b50600436106100f55760003560e01c80638e5125af11610097578063b6b55f2511610066578063b6b55f25146101b0578063b759f954146101c3578063f2fde38b146101d6578063fe15903c146101e957600080fd5b80638e5125af14610187578063973e9b8b1461018f578063adb6183214610197578063b2a061641461019f57600080fd5b8063715018a6116100d3578063715018a614610132578063813aa6071461013a57806384509ab41461014f5780638da5cb5b1461016257600080fd5b806312769f77146100fa5780632190dfd01461010f5780636cf963ab14610117575b600080fd5b61010d6101083660046110d9565b6101fc565b005b61010d610398565b61011f610516565b6040519081526020015b60405180910390f35b61010d61059c565b6101426105d2565b60405161012991906112dc565b61010d61015d366004611183565b6106ae565b6001546001600160a01b03165b6040516001600160a01b039091168152602001610129565b61011f6106dd565b61011f610711565b610142610798565b6002546001600160a01b031661016f565b61010d6101be366004611183565b6107a3565b61010d6101d1366004611183565b610ae7565b61010d6101e436600461108b565b610b46565b61010d6101f7366004611183565b610be1565b600260005414156102285760405162461bcd60e51b815260040161021f90611344565b60405180910390fd5b600260005560405160069061023e9083906111b3565b9081526020016040518091039020546000141561025a57600080fd5b6002546040516001600160a01b039091169063a9059cbb9033906006906102829086906111b3565b908152604051908190036020018120546001600160e01b031960e085901b1682526102c492916004016001600160a01b03929092168252602082015260400190565b602060405180830381600087803b1580156102de57600080fd5b505af11580156102f2573d6000803e3d6000fd5b505050506040513d601f19601f8201168201806040525081019061031691906110b9565b50336001600160a01b03167f222838db2794d11532d940e8dec38ae307ed0b63cd97c233322e221f998767a660068360405161035291906111b3565b908152604051602091819003820181205481520160405180910390a2600060068260405161038091906111b3565b90815260405190819003602001902055506001600055565b6001546001600160a01b031633146103c25760405162461bcd60e51b815260040161021f9061130f565b600260005414156103e55760405162461bcd60e51b815260040161021f90611344565b6002600081815590546040516370a0823160e01b81523060048201526001600160a01b03909116906370a082319060240160206040518083038186803b15801561042e57600080fd5b505afa158015610442573d6000803e3d6000fd5b505050506040513d601f19601f82011682018060405250810190610466919061119b565b6002549091506001600160a01b031663a9059cbb61048c6001546001600160a01b031690565b6040516001600160e01b031960e084901b1681526001600160a01b039091166004820152602481018490526044015b602060405180830381600087803b1580156104d557600080fd5b505af11580156104e9573d6000803e3d6000fd5b505050506040513d601f19601f8201168201806040525081019061050d91906110b9565b50506001600055565b6002546040516370a0823160e01b815230600482015260009182916001600160a01b03909116906370a082319060240160206040518083038186803b15801561055e57600080fd5b505afa158015610572573d6000803e3d6000fd5b505050506040513d601f19601f82011682018060405250810190610596919061119b565b92915050565b6001546001600160a01b031633146105c65760405162461bcd60e51b815260040161021f9061130f565b6105d06000610c10565b565b336000908152600860205260409081902090516060916006916105f59190611241565b9081526020016040518091039020546000141561061157600080fd5b336000908152600860205260409020805461062b906113e2565b80601f0160208091040260200160405190810160405280929190818152602001828054610657906113e2565b80156106a45780601f10610679576101008083540402835291602001916106a4565b820191906000526020600020905b81548152906001019060200180831161068757829003601f168201915b5050505050905090565b6001546001600160a01b031633146106d85760405162461bcd60e51b815260040161021f9061130f565b600455565b6001546000906001600160a01b0316331461070a5760405162461bcd60e51b815260040161021f9061130f565b5060035490565b600254604051636eb1769f60e11b81523360048201523060248201526000916001600160a01b03169063dd62ed3e9060440160206040518083038186803b15801561075b57600080fd5b505afa15801561076f573d6000803e3d6000fd5b505050506040513d601f19601f82011682018060405250810190610793919061119b565b905090565b606061079342610c62565b600260005414156107c65760405162461bcd60e51b815260040161021f90611344565b60026000908155600554819081906107df908590610c7a565b909350915082610806576003546107f7908590610c7a565b60035491945092509050610839565b600454610814908590610ca0565b9093509150610824826064610cf4565b90935091506108338483610c7a565b90935090505b6000821161084657600080fd5b600061085133610d32565b9050600061085e43610c62565b9050600061088c83836040516020016108789291906111cf565b604051602081830303815290604052610d5b565b90504360078260405161089f91906111b3565b90815260200160405180910390205414156108b957600080fd5b436007826040516108ca91906111b3565b908152602001604051809103902081905550600061092684846108f94260405160200161087891815260200190565b60405160200161090b939291906111fe565b60405160208183030381529060405280519060200120610c62565b6002549091506001600160a01b03166323b872dd3361094d6001546001600160a01b031690565b6040516001600160e01b031960e085901b1681526001600160a01b0392831660048201529116602482015260448101889052606401602060405180830381600087803b15801561099c57600080fd5b505af11580156109b0573d6000803e3d6000fd5b505050506040513d601f19601f820116820180604052508101906109d491906110b9565b506002546040516323b872dd60e01b8152336004820152306024820152604481018890526001600160a01b03909116906323b872dd90606401602060405180830381600087803b158015610a2757600080fd5b505af1158015610a3b573d6000803e3d6000fd5b505050506040513d601f19601f82011682018060405250810190610a5f91906110b9565b5085600682604051610a7191906111b3565b90815260408051602092819003830190209290925533600090815260088252919091208251610aa292840190610ff2565b5060405186815233907fe1fffcc4923d04b559f4d29a8bfc6cda04eb5b0d3c460751c2402c5c5cc9109c9060200160405180910390a250506001600055505050505050565b60026000541415610b0a5760405162461bcd60e51b815260040161021f90611344565b600260008190555460405163095ea7b360e01b8152306004820152602481018390526001600160a01b039091169063095ea7b3906044016104bb565b6001546001600160a01b03163314610b705760405162461bcd60e51b815260040161021f9061130f565b6001600160a01b038116610bd55760405162461bcd60e51b815260206004820152602660248201527f4f776e61626c653a206e6577206f776e657220697320746865207a65726f206160448201526564647265737360d01b606482015260840161021f565b610bde81610c10565b50565b6001546001600160a01b03163314610c0b5760405162461bcd60e51b815260040161021f9061130f565b600355565b600180546001600160a01b038381166001600160a01b0319831681179093556040519116919082907f8be0079c531659141344cd1fd0a4f28419497f9722a3daafe3b4186f6b6457e090600090a35050565b60606105968260405160200161087891815260200190565b60008083831115610c9057506000905080610c99565b50600190508183035b9250929050565b60008083610cb45750600190506000610c99565b83830283858281610cd557634e487b7160e01b600052601260045260246000fd5b0414610ce8576000809250925050610c99565b60019590945092505050565b60008082610d0757506000905080610c99565b6001838581610d2657634e487b7160e01b600052601260045260246000fd5b04915091509250929050565b604051606082811b6bffffffffffffffffffffffff191660208301529061059690603401610878565b60408051808201909152601081526f181899199a1a9b1b9c1cb0b131b232b360811b6020820152815160609190600090610d96906002611393565b610da190600261137b565b67ffffffffffffffff811115610dc757634e487b7160e01b600052604160045260246000fd5b6040519080825280601f01601f191660200182016040528015610df1576020820181803683370190505b509050600360fc1b81600081518110610e1a57634e487b7160e01b600052603260045260246000fd5b60200101906001600160f81b031916908160001a905350600f60fb1b81600181518110610e5757634e487b7160e01b600052603260045260246000fd5b60200101906001600160f81b031916908160001a90535060005b8451811015610fea57826004868381518110610e9d57634e487b7160e01b600052603260045260246000fd5b016020015182516001600160f81b031990911690911c60f81c908110610ed357634e487b7160e01b600052603260045260246000fd5b01602001516001600160f81b03191682610eee836002611393565b610ef990600261137b565b81518110610f1757634e487b7160e01b600052603260045260246000fd5b60200101906001600160f81b031916908160001a90535082858281518110610f4f57634e487b7160e01b600052603260045260246000fd5b602091010151815160f89190911c600f16908110610f7d57634e487b7160e01b600052603260045260246000fd5b01602001516001600160f81b03191682610f98836002611393565b610fa390600361137b565b81518110610fc157634e487b7160e01b600052603260045260246000fd5b60200101906001600160f81b031916908160001a90535080610fe28161141d565b915050610e71565b509392505050565b828054610ffe906113e2565b90600052602060002090601f0160209004810192826110205760008555611066565b82601f1061103957805160ff1916838001178555611066565b82800160010185558215611066579182015b8281111561106657825182559160200191906001019061104b565b50611072929150611076565b5090565b5b808211156110725760008155600101611077565b60006020828403121561109c578081fd5b81356001600160a01b03811681146110b2578182fd5b9392505050565b6000602082840312156110ca578081fd5b815180151581146110b2578182fd5b6000602082840312156110ea578081fd5b813567ffffffffffffffff80821115611101578283fd5b818401915084601f830112611114578283fd5b8135818111156111265761112661144e565b604051601f8201601f19908116603f0116810190838211818310171561114e5761114e61144e565b81604052828152876020848701011115611166578586fd5b826020860160208301379182016020019490945295945050505050565b600060208284031215611194578081fd5b5035919050565b6000602082840312156111ac578081fd5b5051919050565b600082516111c58184602087016113b2565b9190910192915050565b600083516111e18184602088016113b2565b8351908301906111f58183602088016113b2565b01949350505050565b600084516112108184602089016113b2565b8451908301906112248183602089016113b2565b84519101906112378183602088016113b2565b0195945050505050565b600080835482600182811c91508083168061125d57607f831692505b602080841082141561127d57634e487b7160e01b87526022600452602487fd5b81801561129157600181146112a2576112ce565b60ff198616895284890196506112ce565b60008a815260209020885b868110156112c65781548b8201529085019083016112ad565b505084890196505b509498975050505050505050565b60208152600082518060208401526112fb8160408501602087016113b2565b601f01601f19169190910160400192915050565b6020808252818101527f4f776e61626c653a2063616c6c6572206973206e6f7420746865206f776e6572604082015260600190565b6020808252601f908201527f5265656e7472616e637947756172643a207265656e7472616e742063616c6c00604082015260600190565b6000821982111561138e5761138e611438565b500190565b60008160001904831182151516156113ad576113ad611438565b500290565b60005b838110156113cd5781810151838201526020016113b5565b838111156113dc576000848401525b50505050565b600181811c908216806113f657607f821691505b6020821081141561141757634e487b7160e01b600052602260045260246000fd5b50919050565b600060001982141561143157611431611438565b5060010190565b634e487b7160e01b600052601160045260246000fd5b634e487b7160e01b600052604160045260246000fdfea2646970667358221220389c02c30158461c256f188db1cc361a6b31e0e4b4055441f0bdb1063e7897c164736f6c63430008040033",
  "linkReferences": {},
  "deployedLinkReferences": {}
}