{
  "_format": "hh-sol-artifact-1",
  "contractName": "Vault",
  "sourceName": "contracts/Vault.sol",
  "abi": [
    {
      "inputs": [
        {
          "internalType": "address",
          "name": "addrToken",
          "type": "address"
        }
      ],
      "stateMutability": "nonpayable",
      "type": "constructor"
    },
    {
      "anonymous": false,
      "inputs": [
        {
          "indexed": true,
          "internalType": "address",
          "name": "previousOwner",
          "type": "address"
        },
        {
          "indexed": true,
          "internalType": "address",
          "name": "newOwner",
          "type": "address"
        }
      ],
      "name": "OwnershipTransferred",
      "type": "event"
    },
    {
      "inputs": [
        {
          "internalType": "uint256",
          "name": "intAmt",
          "type": "uint256"
        }
      ],
      "name": "approve",
      "outputs": [],
      "stateMutability": "nonpayable",
      "type": "function"
    },
    {
      "inputs": [],
      "name": "blockTimestamp",
      "outputs": [
        {
          "internalType": "string",
          "name": "",
          "type": "string"
        }
      ],
      "stateMutability": "view",
      "type": "function"
    },
    {
      "inputs": [
        {
          "internalType": "uint256",
          "name": "intAmt",
          "type": "uint256"
        }
      ],
      "name": "deposit",
      "outputs": [],
      "stateMutability": "nonpayable",
      "type": "function"
    },
    {
      "inputs": [],
      "name": "getAllowance",
      "outputs": [
        {
          "internalType": "uint256",
          "name": "",
          "type": "uint256"
        }
      ],
      "stateMutability": "view",
      "type": "function"
    },
    {
      "inputs": [
        {
          "internalType": "string",
          "name": "strKey",
          "type": "string"
        }
      ],
      "name": "getRedPacket",
      "outputs": [],
      "stateMutability": "nonpayable",
      "type": "function"
    },
    {
      "inputs": [],
      "name": "getSupportedToken",
      "outputs": [
        {
          "internalType": "address",
          "name": "",
          "type": "address"
        }
      ],
      "stateMutability": "view",
      "type": "function"
    },
    {
      "inputs": [],
      "name": "getTxnFeeSmall",
      "outputs": [
        {
          "internalType": "uint256",
          "name": "",
          "type": "uint256"
        }
      ],
      "stateMutability": "view",
      "type": "function"
    },
    {
      "inputs": [],
      "name": "getVaultKey",
      "outputs": [
        {
          "internalType": "string",
          "name": "",
          "type": "string"
        }
      ],
      "stateMutability": "view",
      "type": "function"
    },
    {
      "inputs": [],
      "name": "owner",
      "outputs": [
        {
          "internalType": "address",
          "name": "",
          "type": "address"
        }
      ],
      "stateMutability": "view",
      "type": "function"
    },
    {
      "inputs": [],
      "name": "renounceOwnership",
      "outputs": [],
      "stateMutability": "nonpayable",
      "type": "function"
    },
    {
      "inputs": [
        {
          "internalType": "uint256",
          "name": "intTxnFeePct",
          "type": "uint256"
        }
      ],
      "name": "setTxnFeePct",
      "outputs": [],
      "stateMutability": "nonpayable",
      "type": "function"
    },
    {
      "inputs": [
        {
          "internalType": "uint256",
          "name": "intTxnFee",
          "type": "uint256"
        }
      ],
      "name": "setTxnFeeSmall",
      "outputs": [],
      "stateMutability": "nonpayable",
      "type": "function"
    },
    {
      "inputs": [
        {
          "internalType": "address",
          "name": "newOwner",
          "type": "address"
        }
      ],
      "name": "transferOwnership",
      "outputs": [],
      "stateMutability": "nonpayable",
      "type": "function"
    },
    {
      "inputs": [],
      "name": "vaultBalanceERC20",
      "outputs": [
        {
          "internalType": "uint256",
          "name": "",
          "type": "uint256"
        }
      ],
      "stateMutability": "view",
      "type": "function"
    }
  ],
  "bytecode": "0x60806040526702c68af0bb140000600355603260045568056bc75e2d6310000060055534801561002e57600080fd5b5060405161130f38038061130f83398101604081905261004d916100d2565b600160005561005b33610080565b600280546001600160a01b0319166001600160a01b0392909216919091179055610100565b600180546001600160a01b038381166001600160a01b0319831681179093556040519116919082907f8be0079c531659141344cd1fd0a4f28419497f9722a3daafe3b4186f6b6457e090600090a35050565b6000602082840312156100e3578081fd5b81516001600160a01b03811681146100f9578182fd5b9392505050565b6112008061010f6000396000f3fe608060405234801561001057600080fd5b50600436106100ea5760003560e01c8063973e9b8b1161008c578063b6b55f2511610066578063b6b55f251461019d578063b759f954146101b0578063f2fde38b146101c3578063fe15903c146101d657600080fd5b8063973e9b8b1461017c578063adb6183214610184578063b2a061641461018c57600080fd5b8063813aa607116100c8578063813aa6071461012757806384509ab41461013c5780638da5cb5b1461014f5780638e5125af1461017457600080fd5b806312769f77146100ef5780636cf963ab14610104578063715018a61461011f575b600080fd5b6101026100fd366004610eda565b6101e9565b005b61010c61032e565b6040519081526020015b60405180910390f35b6101026103b4565b61012f6103ea565b6040516101169190611042565b61010261014a366004610f84565b61048b565b6001546001600160a01b03165b6040516001600160a01b039091168152602001610116565b61010c6104ba565b61010c6104ee565b61012f610575565b6002546001600160a01b031661015c565b6101026101ab366004610f84565b610580565b6101026101be366004610f84565b610892565b6101026101d1366004610e8c565b610947565b6101026101e4366004610f84565b6109e2565b600260005414156102155760405162461bcd60e51b815260040161020c906110aa565b60405180910390fd5b600260005560405160069061022b908390610fb4565b9081526020016040518091039020546000141561024757600080fd5b6002546040516001600160a01b039091169063a9059cbb90339060069061026f908690610fb4565b908152604051908190036020018120546001600160e01b031960e085901b1682526102b192916004016001600160a01b03929092168252602082015260400190565b602060405180830381600087803b1580156102cb57600080fd5b505af11580156102df573d6000803e3d6000fd5b505050506040513d601f19601f820116820180604052508101906103039190610eba565b5060006006826040516103169190610fb4565b90815260405190819003602001902055506001600055565b6002546040516370a0823160e01b815230600482015260009182916001600160a01b03909116906370a082319060240160206040518083038186803b15801561037657600080fd5b505afa15801561038a573d6000803e3d6000fd5b505050506040513d601f19601f820116820180604052508101906103ae9190610f9c565b92915050565b6001546001600160a01b031633146103de5760405162461bcd60e51b815260040161020c90611075565b6103e86000610a11565b565b33600090815260086020526040902080546060919061040890611148565b80601f016020809104026020016040519081016040528092919081815260200182805461043490611148565b80156104815780601f1061045657610100808354040283529160200191610481565b820191906000526020600020905b81548152906001019060200180831161046457829003601f168201915b5050505050905090565b6001546001600160a01b031633146104b55760405162461bcd60e51b815260040161020c90611075565b600455565b6001546000906001600160a01b031633146104e75760405162461bcd60e51b815260040161020c90611075565b5060035490565b600254604051636eb1769f60e11b81523360048201523060248201526000916001600160a01b03169063dd62ed3e9060440160206040518083038186803b15801561053857600080fd5b505afa15801561054c573d6000803e3d6000fd5b505050506040513d601f19601f820116820180604052508101906105709190610f9c565b905090565b606061057042610a63565b600260005414156105a35760405162461bcd60e51b815260040161020c906110aa565b6002600090815580806105bf8468056bc75e2d63100000610a7b565b9093509150826105e6576003546105d7908590610a7b565b60035491945092509050610619565b6004546105f4908590610aa1565b9093509150610604826064610af5565b90935091506106138483610a7b565b90935090505b6000821161062657600080fd5b600061063133610b33565b9050600061063e43610a63565b9050600061066c8383604051602001610658929190610fd0565b604051602081830303815290604052610b5c565b90504360078260405161067f9190610fb4565b908152602001604051809103902054141561069957600080fd5b436007826040516106aa9190610fb4565b908152602001604051809103902081905550600061070684846106d94260405160200161065891815260200190565b6040516020016106eb93929190610fff565b60405160208183030381529060405280519060200120610a63565b6002549091506001600160a01b03166323b872dd3361072d6001546001600160a01b031690565b6040516001600160e01b031960e085901b1681526001600160a01b0392831660048201529116602482015260448101889052606401602060405180830381600087803b15801561077c57600080fd5b505af1158015610790573d6000803e3d6000fd5b505050506040513d601f19601f820116820180604052508101906107b49190610eba565b506002546040516323b872dd60e01b8152336004820152306024820152604481018890526001600160a01b03909116906323b872dd90606401602060405180830381600087803b15801561080757600080fd5b505af115801561081b573d6000803e3d6000fd5b505050506040513d601f19601f8201168201806040525081019061083f9190610eba565b50856006826040516108519190610fb4565b9081526040805160209281900383019020929092553360009081526008825291909120825161088292840190610df3565b5050600160005550505050505050565b600260005414156108b55760405162461bcd60e51b815260040161020c906110aa565b600260008190555460405163095ea7b360e01b8152306004820152602481018390526001600160a01b039091169063095ea7b390604401602060405180830381600087803b15801561090657600080fd5b505af115801561091a573d6000803e3d6000fd5b505050506040513d601f19601f8201168201806040525081019061093e9190610eba565b50506001600055565b6001546001600160a01b031633146109715760405162461bcd60e51b815260040161020c90611075565b6001600160a01b0381166109d65760405162461bcd60e51b815260206004820152602660248201527f4f776e61626c653a206e6577206f776e657220697320746865207a65726f206160448201526564647265737360d01b606482015260840161020c565b6109df81610a11565b50565b6001546001600160a01b03163314610a0c5760405162461bcd60e51b815260040161020c90611075565b600355565b600180546001600160a01b038381166001600160a01b0319831681179093556040519116919082907f8be0079c531659141344cd1fd0a4f28419497f9722a3daafe3b4186f6b6457e090600090a35050565b60606103ae8260405160200161065891815260200190565b60008083831115610a9157506000905080610a9a565b50600190508183035b9250929050565b60008083610ab55750600190506000610a9a565b83830283858281610ad657634e487b7160e01b600052601260045260246000fd5b0414610ae9576000809250925050610a9a565b60019590945092505050565b60008082610b0857506000905080610a9a565b6001838581610b2757634e487b7160e01b600052601260045260246000fd5b04915091509250929050565b604051606082811b6bffffffffffffffffffffffff19166020830152906103ae90603401610658565b60408051808201909152601081526f181899199a1a9b1b9c1cb0b131b232b360811b6020820152815160609190600090610b979060026110f9565b610ba29060026110e1565b67ffffffffffffffff811115610bc857634e487b7160e01b600052604160045260246000fd5b6040519080825280601f01601f191660200182016040528015610bf2576020820181803683370190505b509050600360fc1b81600081518110610c1b57634e487b7160e01b600052603260045260246000fd5b60200101906001600160f81b031916908160001a905350600f60fb1b81600181518110610c5857634e487b7160e01b600052603260045260246000fd5b60200101906001600160f81b031916908160001a90535060005b8451811015610deb57826004868381518110610c9e57634e487b7160e01b600052603260045260246000fd5b016020015182516001600160f81b031990911690911c60f81c908110610cd457634e487b7160e01b600052603260045260246000fd5b01602001516001600160f81b03191682610cef8360026110f9565b610cfa9060026110e1565b81518110610d1857634e487b7160e01b600052603260045260246000fd5b60200101906001600160f81b031916908160001a90535082858281518110610d5057634e487b7160e01b600052603260045260246000fd5b602091010151815160f89190911c600f16908110610d7e57634e487b7160e01b600052603260045260246000fd5b01602001516001600160f81b03191682610d998360026110f9565b610da49060036110e1565b81518110610dc257634e487b7160e01b600052603260045260246000fd5b60200101906001600160f81b031916908160001a90535080610de381611183565b915050610c72565b509392505050565b828054610dff90611148565b90600052602060002090601f016020900481019282610e215760008555610e67565b82601f10610e3a57805160ff1916838001178555610e67565b82800160010185558215610e67579182015b82811115610e67578251825591602001919060010190610e4c565b50610e73929150610e77565b5090565b5b80821115610e735760008155600101610e78565b600060208284031215610e9d578081fd5b81356001600160a01b0381168114610eb3578182fd5b9392505050565b600060208284031215610ecb578081fd5b81518015158114610eb3578182fd5b600060208284031215610eeb578081fd5b813567ffffffffffffffff80821115610f02578283fd5b818401915084601f830112610f15578283fd5b813581811115610f2757610f276111b4565b604051601f8201601f19908116603f01168101908382118183101715610f4f57610f4f6111b4565b81604052828152876020848701011115610f67578586fd5b826020860160208301379182016020019490945295945050505050565b600060208284031215610f95578081fd5b5035919050565b600060208284031215610fad578081fd5b5051919050565b60008251610fc6818460208701611118565b9190910192915050565b60008351610fe2818460208801611118565b835190830190610ff6818360208801611118565b01949350505050565b60008451611011818460208901611118565b845190830190611025818360208901611118565b8451910190611038818360208801611118565b0195945050505050565b6020815260008251806020840152611061816040850160208701611118565b601f01601f19169190910160400192915050565b6020808252818101527f4f776e61626c653a2063616c6c6572206973206e6f7420746865206f776e6572604082015260600190565b6020808252601f908201527f5265656e7472616e637947756172643a207265656e7472616e742063616c6c00604082015260600190565b600082198211156110f4576110f461119e565b500190565b60008160001904831182151516156111135761111361119e565b500290565b60005b8381101561113357818101518382015260200161111b565b83811115611142576000848401525b50505050565b600181811c9082168061115c57607f821691505b6020821081141561117d57634e487b7160e01b600052602260045260246000fd5b50919050565b60006000198214156111975761119761119e565b5060010190565b634e487b7160e01b600052601160045260246000fd5b634e487b7160e01b600052604160045260246000fdfea26469706673582212203b64f31202128206735ec5fe02c4e0b5e9ff400853b2d679ffa4ca9c6165881164736f6c63430008040033",
  "linkReferences": {},
  "deployedLinkReferences": {}
}