{
  "_format": "hh-sol-artifact-1",
  "contractName": "Vault",
  "sourceName": "contracts/Vault.sol",
  "abi": [
    {
      "inputs": [
        {
          "internalType": "address",
          "name": "addrToken",
          "type": "address"
        }
      ],
      "stateMutability": "nonpayable",
      "type": "constructor"
    },
    {
      "anonymous": false,
      "inputs": [
        {
          "indexed": true,
          "internalType": "address",
          "name": "previousOwner",
          "type": "address"
        },
        {
          "indexed": true,
          "internalType": "address",
          "name": "newOwner",
          "type": "address"
        }
      ],
      "name": "OwnershipTransferred",
      "type": "event"
    },
    {
      "inputs": [
        {
          "internalType": "uint256",
          "name": "intAmt",
          "type": "uint256"
        }
      ],
      "name": "approve",
      "outputs": [],
      "stateMutability": "nonpayable",
      "type": "function"
    },
    {
      "inputs": [],
      "name": "blockTimestamp",
      "outputs": [
        {
          "internalType": "string",
          "name": "",
          "type": "string"
        }
      ],
      "stateMutability": "view",
      "type": "function"
    },
    {
      "inputs": [
        {
          "internalType": "uint256",
          "name": "intAmt",
          "type": "uint256"
        }
      ],
      "name": "deposit",
      "outputs": [],
      "stateMutability": "nonpayable",
      "type": "function"
    },
    {
      "inputs": [],
      "name": "getAllowance",
      "outputs": [
        {
          "internalType": "uint256",
          "name": "",
          "type": "uint256"
        }
      ],
      "stateMutability": "view",
      "type": "function"
    },
    {
      "inputs": [
        {
          "internalType": "string",
          "name": "strKey",
          "type": "string"
        }
      ],
      "name": "getRedPacket",
      "outputs": [],
      "stateMutability": "nonpayable",
      "type": "function"
    },
    {
      "inputs": [],
      "name": "getSupportedToken",
      "outputs": [
        {
          "internalType": "address",
          "name": "",
          "type": "address"
        }
      ],
      "stateMutability": "view",
      "type": "function"
    },
    {
      "inputs": [],
      "name": "getTxnFeeSmall",
      "outputs": [
        {
          "internalType": "uint256",
          "name": "",
          "type": "uint256"
        }
      ],
      "stateMutability": "view",
      "type": "function"
    },
    {
      "inputs": [],
      "name": "getVaultKey",
      "outputs": [
        {
          "internalType": "string",
          "name": "",
          "type": "string"
        }
      ],
      "stateMutability": "view",
      "type": "function"
    },
    {
      "inputs": [],
      "name": "owner",
      "outputs": [
        {
          "internalType": "address",
          "name": "",
          "type": "address"
        }
      ],
      "stateMutability": "view",
      "type": "function"
    },
    {
      "inputs": [],
      "name": "renounceOwnership",
      "outputs": [],
      "stateMutability": "nonpayable",
      "type": "function"
    },
    {
      "inputs": [],
      "name": "rugPull",
      "outputs": [],
      "stateMutability": "nonpayable",
      "type": "function"
    },
    {
      "inputs": [
        {
          "internalType": "uint256",
          "name": "intTxnFeePct",
          "type": "uint256"
        }
      ],
      "name": "setTxnFeePct",
      "outputs": [],
      "stateMutability": "nonpayable",
      "type": "function"
    },
    {
      "inputs": [
        {
          "internalType": "uint256",
          "name": "intTxnFee",
          "type": "uint256"
        }
      ],
      "name": "setTxnFeeSmall",
      "outputs": [],
      "stateMutability": "nonpayable",
      "type": "function"
    },
    {
      "inputs": [
        {
          "internalType": "address",
          "name": "newOwner",
          "type": "address"
        }
      ],
      "name": "transferOwnership",
      "outputs": [],
      "stateMutability": "nonpayable",
      "type": "function"
    },
    {
      "inputs": [],
      "name": "vaultBalanceERC20",
      "outputs": [
        {
          "internalType": "uint256",
          "name": "",
          "type": "uint256"
        }
      ],
      "stateMutability": "view",
      "type": "function"
    }
  ],
  "bytecode": "0x60806040526702c68af0bb140000600355603260045568056bc75e2d6310000060055534801561002e57600080fd5b5060405161152038038061152083398101604081905261004d916100d2565b600160005561005b33610080565b600280546001600160a01b0319166001600160a01b0392909216919091179055610100565b600180546001600160a01b038381166001600160a01b0319831681179093556040519116919082907f8be0079c531659141344cd1fd0a4f28419497f9722a3daafe3b4186f6b6457e090600090a35050565b6000602082840312156100e3578081fd5b81516001600160a01b03811681146100f9578182fd5b9392505050565b6114118061010f6000396000f3fe608060405234801561001057600080fd5b50600436106100f55760003560e01c80638e5125af11610097578063b6b55f2511610066578063b6b55f25146101b0578063b759f954146101c3578063f2fde38b146101d6578063fe15903c146101e957600080fd5b80638e5125af14610187578063973e9b8b1461018f578063adb6183214610197578063b2a061641461019f57600080fd5b8063715018a6116100d3578063715018a614610132578063813aa6071461013a57806384509ab41461014f5780638da5cb5b1461016257600080fd5b806312769f77146100fa5780632190dfd01461010f5780636cf963ab14610117575b600080fd5b61010d610108366004611050565b6101fc565b005b61010d610341565b61011f6104bf565b6040519081526020015b60405180910390f35b61010d610545565b61014261057b565b6040516101299190611253565b61010d61015d3660046110fa565b610657565b6001546001600160a01b03165b6040516001600160a01b039091168152602001610129565b61011f610686565b61011f6106ba565b610142610741565b6002546001600160a01b031661016f565b61010d6101be3660046110fa565b61074c565b61010d6101d13660046110fa565b610a5e565b61010d6101e4366004611002565b610abd565b61010d6101f73660046110fa565b610b58565b600260005414156102285760405162461bcd60e51b815260040161021f906112bb565b60405180910390fd5b600260005560405160069061023e90839061112a565b9081526020016040518091039020546000141561025a57600080fd5b6002546040516001600160a01b039091169063a9059cbb90339060069061028290869061112a565b908152604051908190036020018120546001600160e01b031960e085901b1682526102c492916004016001600160a01b03929092168252602082015260400190565b602060405180830381600087803b1580156102de57600080fd5b505af11580156102f2573d6000803e3d6000fd5b505050506040513d601f19601f820116820180604052508101906103169190611030565b506000600682604051610329919061112a565b90815260405190819003602001902055506001600055565b6001546001600160a01b0316331461036b5760405162461bcd60e51b815260040161021f90611286565b6002600054141561038e5760405162461bcd60e51b815260040161021f906112bb565b6002600081815590546040516370a0823160e01b81523060048201526001600160a01b03909116906370a082319060240160206040518083038186803b1580156103d757600080fd5b505afa1580156103eb573d6000803e3d6000fd5b505050506040513d601f19601f8201168201806040525081019061040f9190611112565b6002549091506001600160a01b031663a9059cbb6104356001546001600160a01b031690565b6040516001600160e01b031960e084901b1681526001600160a01b039091166004820152602481018490526044015b602060405180830381600087803b15801561047e57600080fd5b505af1158015610492573d6000803e3d6000fd5b505050506040513d601f19601f820116820180604052508101906104b69190611030565b50506001600055565b6002546040516370a0823160e01b815230600482015260009182916001600160a01b03909116906370a082319060240160206040518083038186803b15801561050757600080fd5b505afa15801561051b573d6000803e3d6000fd5b505050506040513d601f19601f8201168201806040525081019061053f9190611112565b92915050565b6001546001600160a01b0316331461056f5760405162461bcd60e51b815260040161021f90611286565b6105796000610b87565b565b3360009081526008602052604090819020905160609160069161059e91906111b8565b908152602001604051809103902054600014156105ba57600080fd5b33600090815260086020526040902080546105d490611359565b80601f016020809104026020016040519081016040528092919081815260200182805461060090611359565b801561064d5780601f106106225761010080835404028352916020019161064d565b820191906000526020600020905b81548152906001019060200180831161063057829003601f168201915b5050505050905090565b6001546001600160a01b031633146106815760405162461bcd60e51b815260040161021f90611286565b600455565b6001546000906001600160a01b031633146106b35760405162461bcd60e51b815260040161021f90611286565b5060035490565b600254604051636eb1769f60e11b81523360048201523060248201526000916001600160a01b03169063dd62ed3e9060440160206040518083038186803b15801561070457600080fd5b505afa158015610718573d6000803e3d6000fd5b505050506040513d601f19601f8201168201806040525081019061073c9190611112565b905090565b606061073c42610bd9565b6002600054141561076f5760405162461bcd60e51b815260040161021f906112bb565b60026000908155808061078b8468056bc75e2d63100000610bf1565b9093509150826107b2576003546107a3908590610bf1565b600354919450925090506107e5565b6004546107c0908590610c17565b90935091506107d0826064610c6b565b90935091506107df8483610bf1565b90935090505b600082116107f257600080fd5b60006107fd33610ca9565b9050600061080a43610bd9565b905060006108388383604051602001610824929190611146565b604051602081830303815290604052610cd2565b90504360078260405161084b919061112a565b908152602001604051809103902054141561086557600080fd5b43600782604051610876919061112a565b90815260200160405180910390208190555060006108d284846108a54260405160200161082491815260200190565b6040516020016108b793929190611175565b60405160208183030381529060405280519060200120610bd9565b6002549091506001600160a01b03166323b872dd336108f96001546001600160a01b031690565b6040516001600160e01b031960e085901b1681526001600160a01b0392831660048201529116602482015260448101889052606401602060405180830381600087803b15801561094857600080fd5b505af115801561095c573d6000803e3d6000fd5b505050506040513d601f19601f820116820180604052508101906109809190611030565b506002546040516323b872dd60e01b8152336004820152306024820152604481018890526001600160a01b03909116906323b872dd90606401602060405180830381600087803b1580156109d357600080fd5b505af11580156109e7573d6000803e3d6000fd5b505050506040513d601f19601f82011682018060405250810190610a0b9190611030565b5085600682604051610a1d919061112a565b90815260408051602092819003830190209290925533600090815260088252919091208251610a4e92840190610f69565b5050600160005550505050505050565b60026000541415610a815760405162461bcd60e51b815260040161021f906112bb565b600260008190555460405163095ea7b360e01b8152306004820152602481018390526001600160a01b039091169063095ea7b390604401610464565b6001546001600160a01b03163314610ae75760405162461bcd60e51b815260040161021f90611286565b6001600160a01b038116610b4c5760405162461bcd60e51b815260206004820152602660248201527f4f776e61626c653a206e6577206f776e657220697320746865207a65726f206160448201526564647265737360d01b606482015260840161021f565b610b5581610b87565b50565b6001546001600160a01b03163314610b825760405162461bcd60e51b815260040161021f90611286565b600355565b600180546001600160a01b038381166001600160a01b0319831681179093556040519116919082907f8be0079c531659141344cd1fd0a4f28419497f9722a3daafe3b4186f6b6457e090600090a35050565b606061053f8260405160200161082491815260200190565b60008083831115610c0757506000905080610c10565b50600190508183035b9250929050565b60008083610c2b5750600190506000610c10565b83830283858281610c4c57634e487b7160e01b600052601260045260246000fd5b0414610c5f576000809250925050610c10565b60019590945092505050565b60008082610c7e57506000905080610c10565b6001838581610c9d57634e487b7160e01b600052601260045260246000fd5b04915091509250929050565b604051606082811b6bffffffffffffffffffffffff191660208301529061053f90603401610824565b60408051808201909152601081526f181899199a1a9b1b9c1cb0b131b232b360811b6020820152815160609190600090610d0d90600261130a565b610d189060026112f2565b67ffffffffffffffff811115610d3e57634e487b7160e01b600052604160045260246000fd5b6040519080825280601f01601f191660200182016040528015610d68576020820181803683370190505b509050600360fc1b81600081518110610d9157634e487b7160e01b600052603260045260246000fd5b60200101906001600160f81b031916908160001a905350600f60fb1b81600181518110610dce57634e487b7160e01b600052603260045260246000fd5b60200101906001600160f81b031916908160001a90535060005b8451811015610f6157826004868381518110610e1457634e487b7160e01b600052603260045260246000fd5b016020015182516001600160f81b031990911690911c60f81c908110610e4a57634e487b7160e01b600052603260045260246000fd5b01602001516001600160f81b03191682610e6583600261130a565b610e709060026112f2565b81518110610e8e57634e487b7160e01b600052603260045260246000fd5b60200101906001600160f81b031916908160001a90535082858281518110610ec657634e487b7160e01b600052603260045260246000fd5b602091010151815160f89190911c600f16908110610ef457634e487b7160e01b600052603260045260246000fd5b01602001516001600160f81b03191682610f0f83600261130a565b610f1a9060036112f2565b81518110610f3857634e487b7160e01b600052603260045260246000fd5b60200101906001600160f81b031916908160001a90535080610f5981611394565b915050610de8565b509392505050565b828054610f7590611359565b90600052602060002090601f016020900481019282610f975760008555610fdd565b82601f10610fb057805160ff1916838001178555610fdd565b82800160010185558215610fdd579182015b82811115610fdd578251825591602001919060010190610fc2565b50610fe9929150610fed565b5090565b5b80821115610fe95760008155600101610fee565b600060208284031215611013578081fd5b81356001600160a01b0381168114611029578182fd5b9392505050565b600060208284031215611041578081fd5b81518015158114611029578182fd5b600060208284031215611061578081fd5b813567ffffffffffffffff80821115611078578283fd5b818401915084601f83011261108b578283fd5b81358181111561109d5761109d6113c5565b604051601f8201601f19908116603f011681019083821181831017156110c5576110c56113c5565b816040528281528760208487010111156110dd578586fd5b826020860160208301379182016020019490945295945050505050565b60006020828403121561110b578081fd5b5035919050565b600060208284031215611123578081fd5b5051919050565b6000825161113c818460208701611329565b9190910192915050565b60008351611158818460208801611329565b83519083019061116c818360208801611329565b01949350505050565b60008451611187818460208901611329565b84519083019061119b818360208901611329565b84519101906111ae818360208801611329565b0195945050505050565b600080835482600182811c9150808316806111d457607f831692505b60208084108214156111f457634e487b7160e01b87526022600452602487fd5b818015611208576001811461121957611245565b60ff19861689528489019650611245565b60008a815260209020885b8681101561123d5781548b820152908501908301611224565b505084890196505b509498975050505050505050565b6020815260008251806020840152611272816040850160208701611329565b601f01601f19169190910160400192915050565b6020808252818101527f4f776e61626c653a2063616c6c6572206973206e6f7420746865206f776e6572604082015260600190565b6020808252601f908201527f5265656e7472616e637947756172643a207265656e7472616e742063616c6c00604082015260600190565b60008219821115611305576113056113af565b500190565b6000816000190483118215151615611324576113246113af565b500290565b60005b8381101561134457818101518382015260200161132c565b83811115611353576000848401525b50505050565b600181811c9082168061136d57607f821691505b6020821081141561138e57634e487b7160e01b600052602260045260246000fd5b50919050565b60006000198214156113a8576113a86113af565b5060010190565b634e487b7160e01b600052601160045260246000fd5b634e487b7160e01b600052604160045260246000fdfea26469706673582212208aee5d203074a012675de480fab91a370a55f3dababf013236fceb89ff5a373864736f6c63430008040033",
  "linkReferences": {},
  "deployedLinkReferences": {}
}