{
  "_format": "hh-sol-artifact-1",
  "contractName": "Vault",
  "sourceName": "contracts/Vault.sol",
  "abi": [
    {
      "inputs": [
        {
          "internalType": "address",
          "name": "addrToken",
          "type": "address"
        }
      ],
      "stateMutability": "nonpayable",
      "type": "constructor"
    },
    {
      "anonymous": false,
      "inputs": [
        {
          "indexed": true,
          "internalType": "address",
          "name": "previousOwner",
          "type": "address"
        },
        {
          "indexed": true,
          "internalType": "address",
          "name": "newOwner",
          "type": "address"
        }
      ],
      "name": "OwnershipTransferred",
      "type": "event"
    },
    {
      "inputs": [
        {
          "internalType": "uint256",
          "name": "intAmt",
          "type": "uint256"
        }
      ],
      "name": "approve",
      "outputs": [],
      "stateMutability": "nonpayable",
      "type": "function"
    },
    {
      "inputs": [],
      "name": "blockTimestamp",
      "outputs": [
        {
          "internalType": "string",
          "name": "",
          "type": "string"
        }
      ],
      "stateMutability": "view",
      "type": "function"
    },
    {
      "inputs": [
        {
          "internalType": "uint256",
          "name": "intAmt",
          "type": "uint256"
        }
      ],
      "name": "deposit",
      "outputs": [],
      "stateMutability": "nonpayable",
      "type": "function"
    },
    {
      "inputs": [],
      "name": "getAllowance",
      "outputs": [
        {
          "internalType": "uint256",
          "name": "",
          "type": "uint256"
        }
      ],
      "stateMutability": "view",
      "type": "function"
    },
    {
      "inputs": [
        {
          "internalType": "string",
          "name": "strKey",
          "type": "string"
        }
      ],
      "name": "getRedPacket",
      "outputs": [],
      "stateMutability": "nonpayable",
      "type": "function"
    },
    {
      "inputs": [],
      "name": "getSupportedToken",
      "outputs": [
        {
          "internalType": "address",
          "name": "",
          "type": "address"
        }
      ],
      "stateMutability": "view",
      "type": "function"
    },
    {
      "inputs": [],
      "name": "getTxnFeeSmall",
      "outputs": [
        {
          "internalType": "uint256",
          "name": "",
          "type": "uint256"
        }
      ],
      "stateMutability": "view",
      "type": "function"
    },
    {
      "inputs": [],
      "name": "getVaultKey",
      "outputs": [
        {
          "internalType": "string",
          "name": "",
          "type": "string"
        }
      ],
      "stateMutability": "view",
      "type": "function"
    },
    {
      "inputs": [],
      "name": "owner",
      "outputs": [
        {
          "internalType": "address",
          "name": "",
          "type": "address"
        }
      ],
      "stateMutability": "view",
      "type": "function"
    },
    {
      "inputs": [],
      "name": "renounceOwnership",
      "outputs": [],
      "stateMutability": "nonpayable",
      "type": "function"
    },
    {
      "inputs": [
        {
          "internalType": "uint256",
          "name": "intTxnFeePct",
          "type": "uint256"
        }
      ],
      "name": "setTxnFeePct",
      "outputs": [],
      "stateMutability": "nonpayable",
      "type": "function"
    },
    {
      "inputs": [
        {
          "internalType": "uint256",
          "name": "intTxnFee",
          "type": "uint256"
        }
      ],
      "name": "setTxnFeeSmall",
      "outputs": [],
      "stateMutability": "nonpayable",
      "type": "function"
    },
    {
      "inputs": [
        {
          "internalType": "address",
          "name": "newOwner",
          "type": "address"
        }
      ],
      "name": "transferOwnership",
      "outputs": [],
      "stateMutability": "nonpayable",
      "type": "function"
    },
    {
      "inputs": [],
      "name": "vaultBalanceERC20",
      "outputs": [
        {
          "internalType": "uint256",
          "name": "",
          "type": "uint256"
        }
      ],
      "stateMutability": "view",
      "type": "function"
    }
  ],
  "bytecode": "0x60806040526702c68af0bb140000600355603260045568056bc75e2d6310000060055534801561002e57600080fd5b506040516113e53803806113e583398101604081905261004d916100d2565b600160005561005b33610080565b600280546001600160a01b0319166001600160a01b0392909216919091179055610100565b600180546001600160a01b038381166001600160a01b0319831681179093556040519116919082907f8be0079c531659141344cd1fd0a4f28419497f9722a3daafe3b4186f6b6457e090600090a35050565b6000602082840312156100e3578081fd5b81516001600160a01b03811681146100f9578182fd5b9392505050565b6112d68061010f6000396000f3fe608060405234801561001057600080fd5b50600436106100ea5760003560e01c8063973e9b8b1161008c578063b6b55f2511610066578063b6b55f251461019d578063b759f954146101b0578063f2fde38b146101c3578063fe15903c146101d657600080fd5b8063973e9b8b1461017c578063adb6183214610184578063b2a061641461018c57600080fd5b8063813aa607116100c8578063813aa6071461012757806384509ab41461013c5780638da5cb5b1461014f5780638e5125af1461017457600080fd5b806312769f77146100ef5780636cf963ab14610104578063715018a61461011f575b600080fd5b6101026100fd366004610f15565b6101e9565b005b61010c61032e565b6040519081526020015b60405180910390f35b6101026103b4565b61012f6103ea565b6040516101169190611118565b61010261014a366004610fbf565b6104c6565b6001546001600160a01b03165b6040516001600160a01b039091168152602001610116565b61010c6104f5565b61010c610529565b61012f6105b0565b6002546001600160a01b031661015c565b6101026101ab366004610fbf565b6105bb565b6101026101be366004610fbf565b6108cd565b6101026101d1366004610ec7565b610982565b6101026101e4366004610fbf565b610a1d565b600260005414156102155760405162461bcd60e51b815260040161020c90611180565b60405180910390fd5b600260005560405160069061022b908390610fef565b9081526020016040518091039020546000141561024757600080fd5b6002546040516001600160a01b039091169063a9059cbb90339060069061026f908690610fef565b908152604051908190036020018120546001600160e01b031960e085901b1682526102b192916004016001600160a01b03929092168252602082015260400190565b602060405180830381600087803b1580156102cb57600080fd5b505af11580156102df573d6000803e3d6000fd5b505050506040513d601f19601f820116820180604052508101906103039190610ef5565b5060006006826040516103169190610fef565b90815260405190819003602001902055506001600055565b6002546040516370a0823160e01b815230600482015260009182916001600160a01b03909116906370a082319060240160206040518083038186803b15801561037657600080fd5b505afa15801561038a573d6000803e3d6000fd5b505050506040513d601f19601f820116820180604052508101906103ae9190610fd7565b92915050565b6001546001600160a01b031633146103de5760405162461bcd60e51b815260040161020c9061114b565b6103e86000610a4c565b565b3360009081526008602052604090819020905160609160069161040d919061107d565b9081526020016040518091039020546000141561042957600080fd5b33600090815260086020526040902080546104439061121e565b80601f016020809104026020016040519081016040528092919081815260200182805461046f9061121e565b80156104bc5780601f10610491576101008083540402835291602001916104bc565b820191906000526020600020905b81548152906001019060200180831161049f57829003601f168201915b5050505050905090565b6001546001600160a01b031633146104f05760405162461bcd60e51b815260040161020c9061114b565b600455565b6001546000906001600160a01b031633146105225760405162461bcd60e51b815260040161020c9061114b565b5060035490565b600254604051636eb1769f60e11b81523360048201523060248201526000916001600160a01b03169063dd62ed3e9060440160206040518083038186803b15801561057357600080fd5b505afa158015610587573d6000803e3d6000fd5b505050506040513d601f19601f820116820180604052508101906105ab9190610fd7565b905090565b60606105ab42610a9e565b600260005414156105de5760405162461bcd60e51b815260040161020c90611180565b6002600090815580806105fa8468056bc75e2d63100000610ab6565b90935091508261062157600354610612908590610ab6565b60035491945092509050610654565b60045461062f908590610adc565b909350915061063f826064610b30565b909350915061064e8483610ab6565b90935090505b6000821161066157600080fd5b600061066c33610b6e565b9050600061067943610a9e565b905060006106a7838360405160200161069392919061100b565b604051602081830303815290604052610b97565b9050436007826040516106ba9190610fef565b90815260200160405180910390205414156106d457600080fd5b436007826040516106e59190610fef565b908152602001604051809103902081905550600061074184846107144260405160200161069391815260200190565b6040516020016107269392919061103a565b60405160208183030381529060405280519060200120610a9e565b6002549091506001600160a01b03166323b872dd336107686001546001600160a01b031690565b6040516001600160e01b031960e085901b1681526001600160a01b0392831660048201529116602482015260448101889052606401602060405180830381600087803b1580156107b757600080fd5b505af11580156107cb573d6000803e3d6000fd5b505050506040513d601f19601f820116820180604052508101906107ef9190610ef5565b506002546040516323b872dd60e01b8152336004820152306024820152604481018890526001600160a01b03909116906323b872dd90606401602060405180830381600087803b15801561084257600080fd5b505af1158015610856573d6000803e3d6000fd5b505050506040513d601f19601f8201168201806040525081019061087a9190610ef5565b508560068260405161088c9190610fef565b908152604080516020928190038301902092909255336000908152600882529190912082516108bd92840190610e2e565b5050600160005550505050505050565b600260005414156108f05760405162461bcd60e51b815260040161020c90611180565b600260008190555460405163095ea7b360e01b8152306004820152602481018390526001600160a01b039091169063095ea7b390604401602060405180830381600087803b15801561094157600080fd5b505af1158015610955573d6000803e3d6000fd5b505050506040513d601f19601f820116820180604052508101906109799190610ef5565b50506001600055565b6001546001600160a01b031633146109ac5760405162461bcd60e51b815260040161020c9061114b565b6001600160a01b038116610a115760405162461bcd60e51b815260206004820152602660248201527f4f776e61626c653a206e6577206f776e657220697320746865207a65726f206160448201526564647265737360d01b606482015260840161020c565b610a1a81610a4c565b50565b6001546001600160a01b03163314610a475760405162461bcd60e51b815260040161020c9061114b565b600355565b600180546001600160a01b038381166001600160a01b0319831681179093556040519116919082907f8be0079c531659141344cd1fd0a4f28419497f9722a3daafe3b4186f6b6457e090600090a35050565b60606103ae8260405160200161069391815260200190565b60008083831115610acc57506000905080610ad5565b50600190508183035b9250929050565b60008083610af05750600190506000610ad5565b83830283858281610b1157634e487b7160e01b600052601260045260246000fd5b0414610b24576000809250925050610ad5565b60019590945092505050565b60008082610b4357506000905080610ad5565b6001838581610b6257634e487b7160e01b600052601260045260246000fd5b04915091509250929050565b604051606082811b6bffffffffffffffffffffffff19166020830152906103ae90603401610693565b60408051808201909152601081526f181899199a1a9b1b9c1cb0b131b232b360811b6020820152815160609190600090610bd29060026111cf565b610bdd9060026111b7565b67ffffffffffffffff811115610c0357634e487b7160e01b600052604160045260246000fd5b6040519080825280601f01601f191660200182016040528015610c2d576020820181803683370190505b509050600360fc1b81600081518110610c5657634e487b7160e01b600052603260045260246000fd5b60200101906001600160f81b031916908160001a905350600f60fb1b81600181518110610c9357634e487b7160e01b600052603260045260246000fd5b60200101906001600160f81b031916908160001a90535060005b8451811015610e2657826004868381518110610cd957634e487b7160e01b600052603260045260246000fd5b016020015182516001600160f81b031990911690911c60f81c908110610d0f57634e487b7160e01b600052603260045260246000fd5b01602001516001600160f81b03191682610d2a8360026111cf565b610d359060026111b7565b81518110610d5357634e487b7160e01b600052603260045260246000fd5b60200101906001600160f81b031916908160001a90535082858281518110610d8b57634e487b7160e01b600052603260045260246000fd5b602091010151815160f89190911c600f16908110610db957634e487b7160e01b600052603260045260246000fd5b01602001516001600160f81b03191682610dd48360026111cf565b610ddf9060036111b7565b81518110610dfd57634e487b7160e01b600052603260045260246000fd5b60200101906001600160f81b031916908160001a90535080610e1e81611259565b915050610cad565b509392505050565b828054610e3a9061121e565b90600052602060002090601f016020900481019282610e5c5760008555610ea2565b82601f10610e7557805160ff1916838001178555610ea2565b82800160010185558215610ea2579182015b82811115610ea2578251825591602001919060010190610e87565b50610eae929150610eb2565b5090565b5b80821115610eae5760008155600101610eb3565b600060208284031215610ed8578081fd5b81356001600160a01b0381168114610eee578182fd5b9392505050565b600060208284031215610f06578081fd5b81518015158114610eee578182fd5b600060208284031215610f26578081fd5b813567ffffffffffffffff80821115610f3d578283fd5b818401915084601f830112610f50578283fd5b813581811115610f6257610f6261128a565b604051601f8201601f19908116603f01168101908382118183101715610f8a57610f8a61128a565b81604052828152876020848701011115610fa2578586fd5b826020860160208301379182016020019490945295945050505050565b600060208284031215610fd0578081fd5b5035919050565b600060208284031215610fe8578081fd5b5051919050565b600082516110018184602087016111ee565b9190910192915050565b6000835161101d8184602088016111ee565b8351908301906110318183602088016111ee565b01949350505050565b6000845161104c8184602089016111ee565b8451908301906110608183602089016111ee565b84519101906110738183602088016111ee565b0195945050505050565b600080835482600182811c91508083168061109957607f831692505b60208084108214156110b957634e487b7160e01b87526022600452602487fd5b8180156110cd57600181146110de5761110a565b60ff1986168952848901965061110a565b60008a815260209020885b868110156111025781548b8201529085019083016110e9565b505084890196505b509498975050505050505050565b60208152600082518060208401526111378160408501602087016111ee565b601f01601f19169190910160400192915050565b6020808252818101527f4f776e61626c653a2063616c6c6572206973206e6f7420746865206f776e6572604082015260600190565b6020808252601f908201527f5265656e7472616e637947756172643a207265656e7472616e742063616c6c00604082015260600190565b600082198211156111ca576111ca611274565b500190565b60008160001904831182151516156111e9576111e9611274565b500290565b60005b838110156112095781810151838201526020016111f1565b83811115611218576000848401525b50505050565b600181811c9082168061123257607f821691505b6020821081141561125357634e487b7160e01b600052602260045260246000fd5b50919050565b600060001982141561126d5761126d611274565b5060010190565b634e487b7160e01b600052601160045260246000fd5b634e487b7160e01b600052604160045260246000fdfea26469706673582212200bb4829b2c1e1a863ee601bb53520b6644356c34110182f0f9e5be828acb2a7864736f6c63430008040033",
  "linkReferences": {},
  "deployedLinkReferences": {}
}